:10013F0075137FAF137801EF08800123D8FDF513F6
:0B014F00F5A07F027E0012015A80E83C
:05018B001200E180FB01
:03000000020003F8
:0C000300787FE4F6D8FD75811502004AF4
:0D0173000B083F065B4F666D7D077F6F77C1
:10008F00C374089FFFB4070050419000A0F82828C0
:10009F00730200B50200B90200C00200C40200CB17
:1000AF000200CF0200D6C2A28002D2A2C2A3C2A473
:1000BF0022C2A28002D2A2D2A3C2A422C2A28002D2
:1000CF00D2A2C2A3D2A422C2A28002D2A2D2A3D20F
:0200DF00A42259
:100118007514017F0112008FE514601A2407F8E6B0
:10012800F5807F027E0012015A0514E51424F5704B
:07013800E775140180E222CB
:1000E1007515017F0112008FE515602A20B103D239
:1000F1009522AF1512008F74072515F8E6F5807F5C
:100101000A7E00120181E4F5800515E51524F770DA
:07011100D775150180D22211
:10015A007D607CEAEF1F70011E144E600BED1D706E
:09016A00011C144C60EE80F5222A
:0A018100EF1F70011E144E70F722EC
:10000F0002018BE493A3F8E493A34003F68001F27B
:10001F0008DFF48029E493A3F85407240CC8C333F2
:10002F00C4540F4420C8834004F456800146F6DFC1
:10003F00E4800B0102040810204080900173E47EDD
:10004F00019360BCA3FF543F30E509541FFEE493B6
:10005F00A360010ECF54C025E060A840B8E493A37D
:10006F00FAE493A3F8E493A3C8C582C8CAC583CAA8
:10007F00F0A3C8C582C8CAC583CADFE9DEE780BE60
:01018000007E
:00000001FF
